:100000000C9434000C9451000C9451000C94510049
:100010000C9451000C9453000C9451000C9451001A
:100020000C9451000C9451000C9464010C94BB008E
:100030000C9451000C942A010C9451000C94510022
:100040000C9451000C9451000C9451000C945100EC
:100050000C9451000C9451000C9451000C945100DC
:100060000C9451000C94510011241FBECFEFD8E026
:10007000DEBFCDBF11E0A0E0B1E0EEECFBE002C0DE
:1000800005900D92A430B107D9F724E0A4E0B1E0C7
:1000900001C01D92A23FB207E1F70E948C040C94AC
:1000A000E5050C9400001F920F920FB60F921124D9
:1000B0002F933F934F935F936F937F938F939F9370
:1000C000AF93BF93EF93FF934C991EC01092090119
:1000D00081E08093000180E00E943B0380E00E9469
:1000E0000F0482E00E94570480E00E94BD0340E0BC
:1000F00063E083E40E945A0240E064E083E40E94EB
:100100005A0241E065E023C081E08093090180E06C
:100110000E940F0480E00E94570484E00E9457046C
:1001200082E00E94620381E00E947F0389E187BD33
:1001300081E00E94BD0340E065E083E40E945A0232
:1001400040E064E083E40E945A0241E063E083E41B
:100150000E945A02FF91EF91BF91AF919F918F91B1
:100160007F916F915F914F913F912F910F900FBEB3
:100170000F901F9018951F920F920FB60F92112497
:100180002F933F934F935F936F937F938F939F939F
:10019000AF93BF93EF93FF93209107013091080134
:1001A00080910501909106012817390748F5809143
:1001B00007019091080180FD04C081E00E947F0347
:1001C00008C080E00E947F0340E066E084E40E9473
:1001D0005A0280910701909108019C012F5F3F4FC7
:1001E0003093080120930701880F991FFC01E65FF7
:1001F000FE4F80819181909389008093880019C07F
:1002000080E00E940F0480E00E943B0382E00E9495
:10021000570480E00E947F0340E066E084E40E948F
:100220005A0281E08093030141E063E083E40E948D
:100230005A02FF91EF91BF91AF919F918F917F9162
:100240006F915F914F913F912F910F900FBE0F9043
:100250001F9018951F920F920FB60F9211242F9393
:100260003F934F935F936F937F938F939F93AF933E
:10027000BF93EF93FF9384E00E94570480E00E94B5
:100280000F0480E00E94570481E080930001809376
:10029000040141E065E083E40E945A0240E064E02A
:1002A00083E40E945A02FF91EF91BF91AF919F9119
:1002B0008F917F916F915F914F913F912F910F900F
:1002C0000FBE0F901F9018951F920F920FB60F92AE
:1002D00011242F933F938F939F93EF93FF938091DC
:1002E0000701909108019C012F5F3F4F3093080157
:1002F000209307012091860030918700880F991F75
:10030000FC01E65FFE4F31832083189904C0809181
:100310008100806403C0809181008F7B8093810085
:1003200080918100826080938100109285001092FC
:100330008400FF91EF919F918F913F912F910F90AA
:100340000FBE0F901F9018959091C00095FFFCCFA5
:100350008093C60008951F93CF93DF9300D000D001
:100360001F92CDB7DEB7009759F480E30F900F903E
:100370000F900F900F90DF91CF911F910C94A401DB
:1003800010E02AE030E041E0410FE1E0F0E0EC0F66
:10039000FD1FE10FF11DB9010E94AF05805D808353
:1003A000CB01009711F0142FEECF17FD0DC0E1E047
:1003B000F0E0EC0FFD1FE10FF11D17FDFA958081B4
:1003C0000E94A4011150F1CF0F900F900F900F9049
:1003D0000F90DF91CF911F910895CF93DF93EC01A0
:1003E0008991882319F00E94A401FACFDF91CF915F
:1003F00008958AE00C94A4019C0140E050E060E480
:1004000072E48FE090E00E94C305215031093093DF
:10041000C5002093C4000895882321F08091C10075
:10042000806103C08091C1008F7E8093C1000895D8
:10043000882321F08091C100886003C08091C100B1
:10044000877F8093C100089581110AC08091C20006
:1004500082608093C2008091C20084608093C20059
:100460000895882319F0813029F008958091C20001
:10047000877F03C08091C20088608093C200089586
:100480000F931F93CF93DF93162FD42FC22F0E9469
:10049000FC01812F0E940C028D2F0E9418028C2FCC
:1004A0000E942402802FDF91CF911F910F910C9415
:1004B00031020895833499F0843401F1823461F576
:1004C00025B181E090E001C0880F6A95EAF74130DC
:1004D00011F4822B02C08095822385B9089528B13A
:1004E00081E090E001C0880F6A95EAF7413011F48D
:1004F000822B02C08095822388B908952BB181E0B8
:1005000090E001C0880F6A95EAF7413011F4822B20
:1005100002C0809582238BB90895833471F08434AE
:10052000B1F08234E9F425B181E090E001C0880F98
:100530006A95EAF7822785B9089528B181E090E0AD
:1005400001C0880F6A95EAF7822788B908952BB110
:1005500081E090E001C0880F6A95EAF782278BB9A5
:100560000895833431F0843431F0823489F423B136
:1005700003C026B101C029B181E090E001C0880F1D
:100580006A95EAF7922F982381E019F480E00895A4
:100590008FEF08958130A9F018F0823019F1089595
:1005A0008091680081608093680020916B0081E0F9
:1005B00090E001C0880F6A95EAF7822B80936B0068
:1005C00008958091680082608093680020916C009B
:1005D00081E090E001C0880F6A95EAF7822B809352
:1005E0006C00089580916800846080936800209179
:1005F0006D0081E090E001C0880F6A95EAF7822BD8
:1006000080936D000895883010F481E08BBB0895CD
:10061000F999FECF92BD81BD60BDFA9AF99A08950D
:10062000F999FECF92BD81BDF89A80B508951F93C8
:10063000CF93DF93EC01172F0E940803612FCE01A7
:100640000196DF91CF911F910C9408030F931F9394
:10065000CF93DF938C010E941003C82FD0E0C80114
:1006600001960E9410039E01382BC901DF91CF91A2
:100670001F910F9108958230D9F028F4882349F012
:10068000813081F008958430C9F078F0853099F098
:10069000089585B58E7F85BD85B58D7F85BD85B572
:1006A0008B7F0EC085B581600BC085B5816085BD2F
:1006B00085B5826005C085B5816085BD85B58460DE
:1006C00085BD0895813069F018F0823071F0089589
:1006D00084B58E7F84BD84B58D7F84BD85B5877FCD
:1006E0000CC084B5826084BD089584B5816084BDEA
:1006F00084B5826084BD85B5886085BD08958130EC
:1007000091F028F0823049F0833051F0089584B59B
:100710008F7784BD84B58F7B08C084B5806805C0A1
:1007200084B5806884BD84B5806484BD08958823C1
:1007300019F0823029F0089580916E00816003C025
:1007400080916E00826080936E000895882319F076
:10075000823029F0089580916E008E7F03C08091D1
:100760006E008D7F80936E000895882319F082308B
:1007700011F0089581E085BB08958130B9F018F03B
:100780008230C1F00895809180008E7F8093800038
:10079000809180008D7F8093800080918100877F91
:1007A00080938100809181008F7E16C080918100AE
:1007B000886012C080918000816080938000809169
:1007C00080008260809380008091810088608093A7
:1007D0008100809181008061809381000895813043
:1007E000C1F028F0823061F0833071F0089580917B
:1007F00080008F7780938000809180008F7B0CC079
:1008000080918000806808C080918000806880931B
:100810008000809180008064809380000895823001
:1008200019F128F4882349F08130A9F00895843023
:1008300021F1A8F08530E1F00895809181008E7F4C
:1008400080938100809181008D7F809381008091D1
:1008500081008B7F15C080918100816011C08091E3
:10086000810081608093810080918100826008C056
:1008700080918100816080938100809181008460FB
:10088000809381000895823041F0843051F08111CD
:100890000DC080916F00816007C080916F00826001
:1008A00003C080916F00806280936F000895823052
:1008B00041F0843051F081110DC080916F008E7F26
:1008C00007C080916F008D7F03C080916F008F7D86
:1008D00080936F000895823039F0843021F08111C7
:1008E00004C081E001C080E286BB0895E1E8F0E049
:1008F0008081806880830895E1E8F0E080818F77CF
:10090000808308959093850080938400089580915A
:100910008600909187000895549841E064E084E453
:100920000E945A0264E082E00E94CA02569A5398DA
:1009300041E063E084E40E945A02529841E062E0A0
:1009400084E40E945A02209841E060E082E40E9420
:100950005A023B9A3C9A3D9AF89480E090E00E94BB
:10096000260390930601809305010AE011E080E0E0
:1009700090E0EC012196209105013091060182174B
:10098000930758F4CE01880F991F0E942603F8019F
:10099000819391938F01CE01ECCF78944C9B10C042
:1009A00081E08093090182E00E94620381E00E945D
:1009B0007F0389E187BD81E00E94BD03439A06C0A1
:1009C0001092090180E00E94BD03459A80910901BF
:1009D000813009F04FC063E084E40E94B1028111CC
:1009E0003FC0809103018823D9F1809102018823BF
:1009F000B9F1109203011092020140E063E083E438
:100A00000E945A0281E00E947F0316BC10920801E6
:100A10001092070180910701909108019C012F5FBE
:100A20003F4F3093080120930701880F991FFC0165
:100A3000E65FFE4F808191819093890080938800CA
:100A4000109285001092840082E00E946B0482E084
:100A50000E94430482E00E943B0382E00E940F0454
:100A600063E084E40E94B102813009F0AFCF80934B
:100A70000201ACCF809109018111A8CF80910401BE
:100A8000882371F18091070190910801019790935B
:100A9000060180930501F8946091050170910601AB
:100AA00080E090E00E9417030AE011E0C0E0D0E08F
:100AB0008091050190910601C817D90770F421961D
:100AC000F80182819381819391938F01BC01CE01C2
:100AD000880F991F0E941703EBCF7894109204019E
:100AE00062E084E40E94B10281112FC08091000174
:100AF000882359F180910101882339F11092000176
:100B000010920801109207011092010140E065E087
:100B100083E40E945A0241E064E083E40E945A02A6
:100B20001092850010928400809181008F7B8093C9
:100B3000810080E00E946B0484E00E946B0484E0EA
:100B40000E94430480E00E94430462E084E40E9427
:100B5000B102813009F03ACF8093010137CFAA1B4F
:100B6000BB1B51E107C0AA1FBB1FA617B70710F098
:100B7000A61BB70B881F991F5A95A9F780959095CA
:100B8000BC01CD010895A1E21A2EAA1BBB1BFD01D9
:100B90000DC0AA1FBB1FEE1FFF1FA217B307E4075C
:100BA000F50720F0A21BB30BE40BF50B661F771FB4
:100BB000881F991F1A9469F7609570958095909594
:0E0BC0009B01AC01BD01CF010895F894FFCF59
:040BCE00010101011F
:00000001FF
